{
  "contractName": "raffle",
  "abi": [
    {
      "inputs": [
        {
          "internalType": "address",
          "name": "vrfCoordinator",
          "type": "address"
        }
      ],
      "stateMutability": "nonpayable",
      "type": "constructor"
    },
    {
      "inputs": [
        {
          "internalType": "address",
          "name": "have",
          "type": "address"
        },
        {
          "internalType": "address",
          "name": "want",
          "type": "address"
        }
      ],
      "name": "OnlyCoordinatorCanFulfill",
      "type": "error"
    },
    {
      "anonymous": false,
      "inputs": [
        {
          "indexed": false,
          "internalType": "uint256",
          "name": "random",
          "type": "uint256"
        },
        {
          "indexed": false,
          "internalType": "address",
          "name": "winner",
          "type": "address"
        }
      ],
      "name": "fulfillEvent",
      "type": "event"
    },
    {
      "anonymous": false,
      "inputs": [
        {
          "indexed": false,
          "internalType": "uint256",
          "name": "requestId",
          "type": "uint256"
        }
      ],
      "name": "initializeVRFEvent",
      "type": "event"
    },
    {
      "inputs": [],
      "name": "NoOfPlayers",
      "outputs": [
        {
          "internalType": "uint256",
          "name": "",
          "type": "uint256"
        }
      ],
      "stateMutability": "view",
      "type": "function"
    },
    {
      "inputs": [],
      "name": "entranceFee",
      "outputs": [
        {
          "internalType": "uint256",
          "name": "",
          "type": "uint256"
        }
      ],
      "stateMutability": "view",
      "type": "function"
    },
    {
      "inputs": [],
      "name": "interval",
      "outputs": [
        {
          "internalType": "uint256",
          "name": "",
          "type": "uint256"
        }
      ],
      "stateMutability": "view",
      "type": "function"
    },
    {
      "inputs": [],
      "name": "owner",
      "outputs": [
        {
          "internalType": "address payable",
          "name": "",
          "type": "address"
        }
      ],
      "stateMutability": "view",
      "type": "function"
    },
    {
      "inputs": [],
      "name": "prize",
      "outputs": [
        {
          "internalType": "uint256",
          "name": "",
          "type": "uint256"
        }
      ],
      "stateMutability": "view",
      "type": "function"
    },
    {
      "inputs": [],
      "name": "random",
      "outputs": [
        {
          "internalType": "uint256",
          "name": "",
          "type": "uint256"
        }
      ],
      "stateMutability": "view",
      "type": "function"
    },
    {
      "inputs": [
        {
          "internalType": "uint256",
          "name": "requestId",
          "type": "uint256"
        },
        {
          "internalType": "uint256[]",
          "name": "randomWords",
          "type": "uint256[]"
        }
      ],
      "name": "rawFulfillRandomWords",
      "outputs": [],
      "stateMutability": "nonpayable",
      "type": "function"
    },
    {
      "inputs": [],
      "name": "requestId",
      "outputs": [
        {
          "internalType": "uint256",
          "name": "",
          "type": "uint256"
        }
      ],
      "stateMutability": "view",
      "type": "function"
    },
    {
      "inputs": [],
      "name": "winner",
      "outputs": [
        {
          "internalType": "address payable",
          "name": "",
          "type": "address"
        }
      ],
      "stateMutability": "view",
      "type": "function"
    },
    {
      "inputs": [],
      "name": "enterRaffle",
      "outputs": [],
      "stateMutability": "payable",
      "type": "function"
    },
    {
      "inputs": [],
      "name": "getPlayersList",
      "outputs": [
        {
          "internalType": "address[]",
          "name": "",
          "type": "address[]"
        }
      ],
      "stateMutability": "view",
      "type": "function"
    },
    {
      "inputs": [],
      "name": "initializeVRF",
      "outputs": [
        {
          "internalType": "uint256",
          "name": "",
          "type": "uint256"
        }
      ],
      "stateMutability": "nonpayable",
      "type": "function"
    },
    {
      "inputs": [],
      "name": "announceWinner",
      "outputs": [
        {
          "internalType": "address",
          "name": "",
          "type": "address"
        }
      ],
      "stateMutability": "view",
      "type": "function"
    },
    {
      "inputs": [],
      "name": "distributePrize",
      "outputs": [],
      "stateMutability": "nonpayable",
      "type": "function"
    },
    {
      "inputs": [],
      "name": "resetRaffle",
      "outputs": [],
      "stateMutability": "nonpayable",
      "type": "function"
    }
  ],
  "bytecode": "0x60a060405260016000806101000a81548160ff0219169083151502179055506064605a476200002f9190620002b1565b6200003b919062000279565b600a556000600d60006101000a81548160ff0219169083151502179055506000600d60016101000a81548160ff0219169083151502179055503480156200008157600080fd5b5060405162001b7538038062001b758339818101604052810190620000a7919062000247565b808073ffffffffffffffffffffffffffffffffffffffff1660808173ffffffffffffffffffffffffffffffffffffffff1660601b815250505080600260006101000a81548173ffffffffffffffffffffffffffffffffffffffff021916908373ffffffffffffffffffffffffffffffffffffffff1602179055507f474e34a077df58807dbe9c96d3c009b23b3c6d0cce433e59bbf5b34f823bc56c60001b600381905550610e42600460006101000a81548167ffffffffffffffff021916908367ffffffffffffffff1602179055506003600460086101000a81548161ffff021916908361ffff160217905550621e84806004600a6101000a81548163ffffffff021916908363ffffffff16021790555060016004600e6101000a81548163ffffffff021916908363ffffffff16021790555066038d7ea4c6800060078190555033600b60006101000a81548173ffffffffffffffffffffffffffffffffffffffff021916908373ffffffffffffffffffffffffffffffffffffffff16021790555050620003cd565b6000815190506200024181620003b3565b92915050565b60006020828403121562000260576200025f620003ae565b5b6000620002708482850162000230565b91505092915050565b6000620002868262000346565b9150620002938362000346565b925082620002a657620002a56200037f565b5b828204905092915050565b6000620002be8262000346565b9150620002cb8362000346565b9250817fffffffffffffffffffffffffffffffffffffffffffffffffffffffffffffffff048311821515161562000307576200030662000350565b5b828202905092915050565b60006200031f8262000326565b9050919050565b600073ffffffffffffffffffffffffffffffffffffffff82169050919050565b6000819050919050565b7f4e487b7100000000000000000000000000000000000000000000000000000000600052601160045260246000fd5b7f4e487b7100000000000000000000000000000000000000000000000000000000600052601260045260246000fd5b600080fd5b620003be8162000312565b8114620003ca57600080fd5b50565b60805160601c611782620003f360003960008181610334015261038801526117826000f3fe6080604052600436106100e75760003560e01c8063649677e11161008a5780638da5cb5b116100595780638da5cb5b1461027a578063947a36fb146102a5578063dfbf53ae146102d0578063e3ac5d26146102fb576100e7565b8063649677e1146101f65780636d99f6521461022157806377b6e504146102385780638a444c2f1461024f576100e7565b806329c983ec116100c657806329c983ec1461016b5780632cfcc539146101965780632d8cd096146101a05780635ec01e4d146101cb576100e7565b80626d6cae146100ec5780630e2994d0146101175780631fe543e314610142575b600080fd5b3480156100f857600080fd5b50610101610326565b60405161010e9190611206565b60405180910390f35b34801561012357600080fd5b5061012c61032c565b6040516101399190611206565b60405180910390f35b34801561014e57600080fd5b5061016960048036038101906101649190610dcc565b610332565b005b34801561017757600080fd5b506101806103f2565b60405161018d91906110b1565b60405180910390f35b61019e6104fd565b005b3480156101ac57600080fd5b506101b5610606565b6040516101c29190611052565b60405180910390f35b3480156101d757600080fd5b506101e0610686565b6040516101ed9190611206565b60405180910390f35b34801561020257600080fd5b5061020b61068c565b6040516102189190611206565b60405180910390f35b34801561022d57600080fd5b50610236610692565b005b34801561024457600080fd5b5061024d610721565b005b34801561025b57600080fd5b50610264610963565b6040516102719190611206565b60405180910390f35b34801561028657600080fd5b5061028f610b0c565b60405161029c919061106d565b60405180910390f35b3480156102b157600080fd5b506102ba610b32565b6040516102c79190611206565b60405180910390f35b3480156102dc57600080fd5b506102e5610b38565b6040516102f2919061106d565b60405180910390f35b34801561030757600080fd5b50610310610b5e565b60405161031d9190611206565b60405180910390f35b60055481565b60095481565b7f000000000000000000000000000000000000000000000000000000000000000073ffffffffffffffffffffffffffffffffffffffff163373ffffffffffffffffffffffffffffffffffffffff16146103e457337f00000000000000000000000000000000000000000000000000000000000000006040517f1cf993f40000000000000000000000000000000000000000000000000000000081526004016103db929190611088565b60405180910390fd5b6103ee8282610b64565b5050565b6060600060018054905067ffffffffffffffff81111561041557610414611573565b5b6040519080825280602002602001820160405280156104435781602001602082028036833780820191505090505b50905060005b6001805490508110156104f5576001818154811061046a57610469611544565b5b9060005260206000200160009054906101000a900473ffffffffffffffffffffffffffffffffffffffff168282815181106104a8576104a7611544565b5b602002602001019073ffffffffffffffffffffffffffffffffffffffff16908173ffffffffffffffffffffffffffffffffffffffff168152505080806104ed9061146c565b915050610449565b508091505090565b6001151560008054906101000a900460ff16151514610551576040517f08c379a0000000000000000000000000000000000000000000000000000000008152600401610548906111e6565b60405180910390fd5b6007543414610595576040517f08c379a000000000000000000000000000000000000000000000000000000000815260040161058c906111c6565b60405180910390fd5b6001339080600181540180825580915050600190039060005260206000200160009091909190916101000a81548173ffffffffffffffffffffffffffffffffffffffff021916908373ffffffffffffffffffffffffffffffffffffffff160217905550600180549050600981905550565b600060011515600d60009054906101000a900460ff1615151461065e576040517f08c379a0000000000000000000000000000000000000000000000000000000008152600401610655906111a6565b60405180910390fd5b600860009054906101000a900473ffffffffffffffffffffffffffffffffffffffff16905090565b60065481565b60075481565b60016000806101000a81548160ff0219169083151502179055506000600d60006101000a81548160ff0219169083151502179055506000600981905550600160006106dd9190610c99565b6000600860006101000a81548173ffffffffffffffffffffffffffffffffffffffff021916908373ffffffffffffffffffffffffffffffffffffffff160217905550565b6000151560008054906101000a900460ff16151514610775576040517f08c379a000000000000000000000000000000000000000000000000000000000815260040161076c90611126565b60405180910390fd5b60011515600d60009054906101000a900460ff161515146107cb576040517f08c379a00000000000000000000000000000000000000000000000000000000081526004016107c2906111a6565b60405180910390fd5b6064605a476107da9190611321565b6107e491906112f0565b600a819055506000600860009054906101000a900473ffffffffffffffffffffffffffffffffffffffff1673ffffffffffffffffffffffffffffffffffffffff16600a546040516108349061103d565b60006040518083038185875af1925050503d8060008114610871576040519150601f19603f3d011682016040523d82523d6000602084013e610876565b606091505b505080915050806108bc576040517f08c379a00000000000000000000000000000000000000000000000000000000081526004016108b390611146565b60405180910390fd5b6000600b60009054906101000a900473ffffffffffffffffffffffffffffffffffffffff1673ffffffffffffffffffffffffffffffffffffffff166108fc479081150290604051600060405180830381858888f19350505050905080610957576040517f08c379a000000000000000000000000000000000000000000000000000000000815260040161094e90611186565b60405180910390fd5b61095f610692565b5050565b60006001600954116109aa576040517f08c379a00000000000000000000000000000000000000000000000000000000081526004016109a190611166565b60405180910390fd5b60008060006101000a81548160ff021916908315150217905550600260009054906101000a900473ffffffffffffffffffffffffffffffffffffffff1673ffffffffffffffffffffffffffffffffffffffff16635d3b1d30600354600460009054906101000a900467ffffffffffffffff16600460089054906101000a900461ffff166004600a9054906101000a900463ffffffff166004600e9054906101000a900463ffffffff166040518663ffffffff1660e01b8152600401610a739594939291906110d3565b602060405180830381600087803b158015610a8d57600080fd5b505af1158015610aa1573d6000803e3d6000fd5b505050506040513d601f19601f82011682018060405250810190610ac59190610d9f565b6005819055507ff26c70a8ffaedce4193dc4f9f330e70c488a7633f463c22d41403dbe58e87281600554604051610afc9190611206565b60405180910390a1600554905090565b600b60009054906101000a900473ffffffffffffffffffffffffffffffffffffffff1681565b600c5481565b600860009054906101000a900473ffffffffffffffffffffffffffffffffffffffff1681565b600a5481565b80600081518110610b7857610b77611544565b5b60200260200101516006819055506000600180549050600654610b9b91906114b5565b905060018181548110610bb157610bb0611544565b5b9060005260206000200160009054906101000a900473ffffffffffffffffffffffffffffffffffffffff16600860006101000a81548173ffffffffffffffffffffffffffffffffffffffff021916908373ffffffffffffffffffffffffffffffffffffffff1602179055506001600d60006101000a81548160ff0219169083151502179055507fc9dd38c6f280d17f81212f5413afca2bc55a3409b9294ce39da314ebba3894f9600654600860009054906101000a900473ffffffffffffffffffffffffffffffffffffffff16604051610c8c929190611221565b60405180910390a1505050565b5080546000825590600052602060002090810190610cb79190610cba565b50565b5b80821115610cd3576000816000905550600101610cbb565b5090565b6000610cea610ce58461126f565b61124a565b90508083825260208201905082856020860282011115610d0d57610d0c6115a7565b5b60005b85811015610d3d5781610d238882610d75565b845260208401935060208301925050600181019050610d10565b5050509392505050565b600082601f830112610d5c57610d5b6115a2565b5b8135610d6c848260208601610cd7565b91505092915050565b600081359050610d8481611735565b92915050565b600081519050610d9981611735565b92915050565b600060208284031215610db557610db46115b1565b5b6000610dc384828501610d8a565b91505092915050565b60008060408385031215610de357610de26115b1565b5b6000610df185828601610d75565b925050602083013567ffffffffffffffff811115610e1257610e116115ac565b5b610e1e85828601610d47565b9150509250929050565b6000610e348383610e5e565b60208301905092915050565b610e4981611405565b82525050565b610e588161138d565b82525050565b610e678161137b565b82525050565b610e768161137b565b82525050565b6000610e87826112ab565b610e9181856112c3565b9350610e9c8361129b565b8060005b83811015610ecd578151610eb48882610e28565b9750610ebf836112b6565b925050600181019050610ea0565b5085935050505092915050565b610ee38161139f565b82525050565b6000610ef66014836112df565b9150610f01826115c7565b602082019050919050565b6000610f196022836112df565b9150610f24826115f0565b604082019050919050565b6000610f3c6012836112df565b9150610f478261163f565b602082019050919050565b6000610f5f602d836112df565b9150610f6a82611668565b604082019050919050565b6000610f826015836112df565b9150610f8d826116b7565b602082019050919050565b6000610fa56011836112df565b9150610fb0826116e0565b602082019050919050565b6000610fc86000836112d4565b9150610fd382611709565b600082019050919050565b6000610feb600d836112df565b9150610ff68261170c565b602082019050919050565b61100a816113a9565b82525050565b611019816113d7565b82525050565b611028816113e1565b82525050565b611037816113f1565b82525050565b600061104882610fbb565b9150819050919050565b60006020820190506110676000830184610e6d565b92915050565b60006020820190506110826000830184610e4f565b92915050565b600060408201905061109d6000830185610e6d565b6110aa6020830184610e6d565b9392505050565b600060208201905081810360008301526110cb8184610e7c565b905092915050565b600060a0820190506110e86000830188610eda565b6110f5602083018761102e565b6111026040830186611001565b61110f606083018561101f565b61111c608083018461101f565b9695505050505050565b6000602082019050818103600083015261113f81610ee9565b9050919050565b6000602082019050818103600083015261115f81610f0c565b9050919050565b6000602082019050818103600083015261117f81610f2f565b9050919050565b6000602082019050818103600083015261119f81610f52565b9050919050565b600060208201905081810360008301526111bf81610f75565b9050919050565b600060208201905081810360008301526111df81610f98565b9050919050565b600060208201905081810360008301526111ff81610fde565b9050919050565b600060208201905061121b6000830184611010565b92915050565b60006040820190506112366000830185611010565b6112436020830184610e40565b9392505050565b6000611254611265565b9050611260828261143b565b919050565b6000604051905090565b600067ffffffffffffffff82111561128a57611289611573565b5b602082029050602081019050919050565b6000819050602082019050919050565b600081519050919050565b6000602082019050919050565b600082825260208201905092915050565b600081905092915050565b600082825260208201905092915050565b60006112fb826113d7565b9150611306836113d7565b92508261131657611315611515565b5b828204905092915050565b600061132c826113d7565b9150611337836113d7565b9250817fffffffffffffffffffffffffffffffffffffffffffffffffffffffffffffffff04831182151516156113705761136f6114e6565b5b828202905092915050565b6000611386826113b7565b9050919050565b6000611398826113b7565b9050919050565b6000819050919050565b600061ffff82169050919050565b600073ffffffffffffffffffffffffffffffffffffffff82169050919050565b6000819050919050565b600063ffffffff82169050919050565b600067ffffffffffffffff82169050919050565b600061141082611417565b9050919050565b600061142282611429565b9050919050565b6000611434826113b7565b9050919050565b611444826115b6565b810181811067ffffffffffffffff8211171561146357611462611573565b5b80604052505050565b6000611477826113d7565b91507fffffffffffffffffffffffffffffffffffffffffffffffffffffffffffffffff8214156114aa576114a96114e6565b5b600182019050919050565b60006114c0826113d7565b91506114cb836113d7565b9250826114db576114da611515565b5b828206905092915050565b7f4e487b7100000000000000000000000000000000000000000000000000000000600052601160045260246000fd5b7f4e487b7100000000000000000000000000000000000000000000000000000000600052601260045260246000fd5b7f4e487b7100000000000000000000000000000000000000000000000000000000600052603260045260246000fd5b7f4e487b7100000000000000000000000000000000000000000000000000000000600052604160045260246000fd5b600080fd5b600080fd5b600080fd5b600080fd5b6000601f19601f8301169050919050565b7f526166666c65207374696c6c2072756e6e696e67000000000000000000000000600082015250565b7f4661696c656420746f2073656e64207072697a6520746f207468652077696e6e60008201527f6572000000000000000000000000000000000000000000000000000000000000602082015250565b7f6e6f7420656e6f67687420706c61796572730000000000000000000000000000600082015250565b7f4661696c656420746f2073656e642072656d61696e696e672062616c616e636560008201527f20746f20746865206f776e657200000000000000000000000000000000000000602082015250565b7f77696e6e6572206e6f74207069636b6564207965740000000000000000000000600082015250565b7f456e7472616e63654665654e6f744d6574000000000000000000000000000000600082015250565b50565b7f526166666c654e6f744f70656e00000000000000000000000000000000000000600082015250565b61173e816113d7565b811461174957600080fd5b5056fea26469706673582212200622443d60cdce5c8df7fc66d79326da39aee897c084074b48875a1df983dc9b64736f6c63430008060033",
  "immutableReferences": {
    "10": [
      {
        "length": 32,
        "start": 820
      },
      {
        "length": 32,
        "start": 904
      }
    ]
  },
  "source": "// SPDX-License-Identifier: MIT\r\npragma solidity ^0.8.0;\r\n\r\nimport { VRFCoordinatorV2Interface } from \"@chainlink/contracts/src/v0.8/interfaces/VRFCoordinatorV2Interface.sol\";\r\nimport { VRFConsumerBaseV2 } from \"@chainlink/contracts/src/v0.8/VRFConsumerBaseV2.sol\";\r\n\r\ncontract raffle is VRFConsumerBaseV2 {\r\n\r\n    bool raffleOpen= true;\r\n    \r\n    address payable[] private players;\r\n    VRFCoordinatorV2Interface private vrf;\r\n    bytes32 private  keyHash;\r\n    uint64 private subId;\r\n    uint16 private minimumRequestConfirmations;\r\n    uint32 private callbackGasLimit;\r\n    uint32 private numWords;\r\n    uint256 public requestId ;\r\n    uint public random;\r\n    uint public entranceFee;\r\n    address payable public  winner;\r\n    uint public NoOfPlayers;\r\n    uint public prize=(address(this).balance) * 90 / 100;\r\n    address payable  public owner;\r\n    uint public interval ;\r\n    bool winnerPicked=false;\r\n    bool randomGenerated= false;\r\n    \r\n\r\n\r\n    constructor(address vrfCoordinator) VRFConsumerBaseV2(vrfCoordinator) {\r\n        vrf = VRFCoordinatorV2Interface(vrfCoordinator);\r\n        keyHash = 0x474e34a077df58807dbe9c96d3c009b23b3c6d0cce433e59bbf5b34f823bc56c;\r\n        subId = 3650;\r\n        minimumRequestConfirmations = 3; \r\n        callbackGasLimit = 2000000;\r\n        numWords = 1;\r\n        entranceFee= 0.001 ether;\r\n        owner =payable(msg.sender);\r\n       \r\n    }\r\n    \r\n    function enterRaffle() public payable {\r\n        \r\n         if (raffleOpen!=true) {\r\n            revert (\"RaffleNotOpen\");\r\n         }\r\n         if(msg.value!=entranceFee){\r\n            revert (\"EntranceFeeNotMet\");\r\n         }\r\n        players.push(payable(msg.sender));\r\n        NoOfPlayers=players.length;\r\n        \r\n        \r\n    }\r\n\r\n    function getPlayersList() public view returns(address[] memory){\r\n        address[] memory playersList = new address[](players.length);\r\n         for (uint256 i = 0; i < players.length; i++) \r\n         {\r\n        playersList[i] = players[i];\r\n        }\r\n        return playersList;\r\n    }\r\n\r\n   event initializeVRFEvent (uint256 requestId);\r\n\r\n    function initializeVRF() public returns (uint256) \r\n    {\r\n\r\n      require(NoOfPlayers>1,\"not enoght players\");\r\n      \r\n      raffleOpen=false;\r\n       requestId = vrf.requestRandomWords(\r\n            keyHash,\r\n            subId,\r\n            minimumRequestConfirmations,\r\n            callbackGasLimit,\r\n            numWords\r\n        );\r\n        emit initializeVRFEvent(requestId);\r\n        return requestId;\r\n    }\r\n\r\n    event fulfillEvent ( uint256 random,address winner ) ;\r\n\r\n    function fulfillRandomWords(uint256 , uint256[] memory randomWords) internal override {\r\n        \r\n      \r\n        random=randomWords[0];\r\n        uint256 index=random % (players.length);\r\n        winner=players[index];\r\n        winnerPicked=true;\r\n       \r\n        emit fulfillEvent(random,winner);\r\n            \r\n\r\n    }\r\n\r\n    function announceWinner() public view returns(address)\r\n    {   \r\n        require(winnerPicked==true,\"winner not picked yet\");\r\n        \r\n        return(winner);\r\n        \r\n    }\r\n\r\n\r\n  function distributePrize() public{\r\n        require(raffleOpen==false,\"Raffle still running\");\r\n        require(winnerPicked==true,\"winner not picked yet\");\r\n        prize = (address(this).balance) * 90 / 100;\r\n        bool success = false;\r\n\r\n        // Send the prize to the winner address\r\n        (success, ) = winner.call{value: prize}(\"\");\r\n        require(success, \"Failed to send prize to the winner\");\r\n\r\n        // Send the remaining balance to the owner\r\n        bool ok = owner.send(address(this).balance);\r\n        require(ok, \"Failed to send remaining balance to the owner\");\r\n        resetRaffle();\r\n        \r\n\r\n  }\r\n    \r\n    \r\n   \r\n\r\n   \r\n   function resetRaffle () public{\r\n       \r\n      \r\n       raffleOpen=true;\r\n       winnerPicked=false;\r\n       NoOfPlayers=0;\r\n       delete players;\r\n       winner=payable(0);\r\n       \r\n\r\n      \r\n   }\r\n}",
  "sourcePath": "C:\\Users\\5u\\Desktop\\lottery dapp\\contracts\\lottery.sol",
  "compiler": {
    "name": "solc",
    "version": "0.8.6+commit.11564f7e.Emscripten.clang"
  },
  "schemaVersion": "3.4.14",
  "updatedAt": "2023-07-27T16:29:23.141Z",
  "devdoc": {
    "kind": "dev",
    "methods": {},
    "version": 1
  },
  "userdoc": {
    "kind": "user",
    "methods": {},
    "version": 1
  }
}